{
  "contractName": "BountyApp",
  "abi": [
    {
      "constant": true,
      "inputs": [
        {
          "name": "",
          "type": "address"
        }
      ],
      "name": "createdBountyCount",
      "outputs": [
        {
          "name": "",
          "type": "uint256"
        }
      ],
      "payable": false,
      "stateMutability": "view",
      "type": "function",
      "signature": "0x0ac59a8c"
    },
    {
      "constant": true,
      "inputs": [
        {
          "name": "",
          "type": "uint256"
        }
      ],
      "name": "bountyIdToCreator",
      "outputs": [
        {
          "name": "",
          "type": "address"
        }
      ],
      "payable": false,
      "stateMutability": "view",
      "type": "function",
      "signature": "0x2de0b049"
    },
    {
      "constant": true,
      "inputs": [
        {
          "name": "",
          "type": "uint256"
        }
      ],
      "name": "idToBounty",
      "outputs": [
        {
          "name": "isOpened",
          "type": "bool"
        },
        {
          "name": "exist",
          "type": "bool"
        },
        {
          "name": "amount",
          "type": "uint256"
        },
        {
          "name": "title",
          "type": "string"
        },
        {
          "name": "description",
          "type": "string"
        }
      ],
      "payable": false,
      "stateMutability": "view",
      "type": "function",
      "signature": "0x382e4f39"
    },
    {
      "constant": true,
      "inputs": [
        {
          "name": "",
          "type": "address"
        }
      ],
      "name": "worksProposedCount",
      "outputs": [
        {
          "name": "",
          "type": "uint256"
        }
      ],
      "payable": false,
      "stateMutability": "view",
      "type": "function",
      "signature": "0x3a4634ce"
    },
    {
      "constant": true,
      "inputs": [
        {
          "name": "",
          "type": "uint256"
        },
        {
          "name": "",
          "type": "uint256"
        }
      ],
      "name": "bountyIdToWorkIds",
      "outputs": [
        {
          "name": "",
          "type": "uint256"
        }
      ],
      "payable": false,
      "stateMutability": "view",
      "type": "function",
      "signature": "0x4914f482"
    },
    {
      "constant": true,
      "inputs": [
        {
          "name": "",
          "type": "uint256"
        }
      ],
      "name": "workIdToBountyId",
      "outputs": [
        {
          "name": "",
          "type": "uint256"
        }
      ],
      "payable": false,
      "stateMutability": "view",
      "type": "function",
      "signature": "0x59758cde"
    },
    {
      "constant": true,
      "inputs": [
        {
          "name": "",
          "type": "address"
        },
        {
          "name": "",
          "type": "uint256"
        }
      ],
      "name": "doerToWorkIds",
      "outputs": [
        {
          "name": "",
          "type": "uint256"
        }
      ],
      "payable": false,
      "stateMutability": "view",
      "type": "function",
      "signature": "0x63ae23d8"
    },
    {
      "constant": true,
      "inputs": [],
      "name": "stopped",
      "outputs": [
        {
          "name": "",
          "type": "bool"
        }
      ],
      "payable": false,
      "stateMutability": "view",
      "type": "function",
      "signature": "0x75f12b21"
    },
    {
      "constant": true,
      "inputs": [
        {
          "name": "",
          "type": "uint256"
        }
      ],
      "name": "workIdToDoer",
      "outputs": [
        {
          "name": "",
          "type": "address"
        }
      ],
      "payable": false,
      "stateMutability": "view",
      "type": "function",
      "signature": "0x7a5f2648"
    },
    {
      "constant": true,
      "inputs": [],
      "name": "owner",
      "outputs": [
        {
          "name": "",
          "type": "address"
        }
      ],
      "payable": false,
      "stateMutability": "view",
      "type": "function",
      "signature": "0x8da5cb5b"
    },
    {
      "constant": true,
      "inputs": [
        {
          "name": "",
          "type": "uint256"
        }
      ],
      "name": "idToWork",
      "outputs": [
        {
          "name": "workFileHash",
          "type": "string"
        },
        {
          "name": "description",
          "type": "string"
        },
        {
          "name": "denied",
          "type": "bool"
        },
        {
          "name": "exist",
          "type": "bool"
        },
        {
          "name": "approved",
          "type": "bool"
        },
        {
          "name": "doer",
          "type": "address"
        }
      ],
      "payable": false,
      "stateMutability": "view",
      "type": "function",
      "signature": "0xa1d2c548"
    },
    {
      "constant": true,
      "inputs": [
        {
          "name": "",
          "type": "address"
        },
        {
          "name": "",
          "type": "uint256"
        }
      ],
      "name": "creatorToBountyIds",
      "outputs": [
        {
          "name": "",
          "type": "uint256"
        }
      ],
      "payable": false,
      "stateMutability": "view",
      "type": "function",
      "signature": "0xd6bb920a"
    },
    {
      "constant": true,
      "inputs": [
        {
          "name": "",
          "type": "address"
        }
      ],
      "name": "pendingWithdrawals",
      "outputs": [
        {
          "name": "",
          "type": "uint256"
        }
      ],
      "payable": false,
      "stateMutability": "view",
      "type": "function",
      "signature": "0xf3f43703"
    },
    {
      "inputs": [],
      "payable": false,
      "stateMutability": "nonpayable",
      "type": "constructor",
      "signature": "constructor"
    },
    {
      "anonymous": false,
      "inputs": [
        {
          "indexed": false,
          "name": "bountyId",
          "type": "uint256"
        },
        {
          "indexed": true,
          "name": "creator",
          "type": "address"
        }
      ],
      "name": "NewBounty",
      "type": "event",
      "signature": "0xe833fe7ec334a36fe5fb99c0eb05d0ccbc7e61c17d9ba40efa82a6891bcfe016"
    },
    {
      "anonymous": false,
      "inputs": [
        {
          "indexed": false,
          "name": "workId",
          "type": "uint256"
        },
        {
          "indexed": true,
          "name": "bountyId",
          "type": "uint256"
        },
        {
          "indexed": true,
          "name": "hunter",
          "type": "address"
        }
      ],
      "name": "NewWork",
      "type": "event",
      "signature": "0xd45360172e8a0f311f4cd7fdfb954f4eff78f5938f808c776765c73647ef4aa3"
    },
    {
      "anonymous": false,
      "inputs": [
        {
          "indexed": false,
          "name": "workId",
          "type": "uint256"
        },
        {
          "indexed": true,
          "name": "bountyId",
          "type": "uint256"
        }
      ],
      "name": "WorkApproved",
      "type": "event",
      "signature": "0xaf8c00204411d5f080de0913186cb59749c06fed4928e61473415b44facf6d8e"
    },
    {
      "anonymous": false,
      "inputs": [
        {
          "indexed": false,
          "name": "workId",
          "type": "uint256"
        },
        {
          "indexed": true,
          "name": "bountyId",
          "type": "uint256"
        }
      ],
      "name": "WorkRejected",
      "type": "event",
      "signature": "0x3b5842158db85ec7b284e2f15550fc6c027b2fd6807d8a8087927899447176f2"
    },
    {
      "anonymous": false,
      "inputs": [
        {
          "indexed": true,
          "name": "withdrawer",
          "type": "address"
        }
      ],
      "name": "BalanceWithdrawed",
      "type": "event",
      "signature": "0x4b32e41f59de0c28082b3c9d6fc07206418a2f540f6a172b72985c3756e46344"
    },
    {
      "constant": false,
      "inputs": [],
      "name": "activateCircuitBreaker",
      "outputs": [],
      "payable": false,
      "stateMutability": "nonpayable",
      "type": "function",
      "signature": "0x31993394"
    },
    {
      "constant": true,
      "inputs": [
        {
          "name": "id",
          "type": "uint256"
        }
      ],
      "name": "bountyCountWorks",
      "outputs": [
        {
          "name": "",
          "type": "uint256"
        }
      ],
      "payable": false,
      "stateMutability": "view",
      "type": "function",
      "signature": "0x0f28daa1"
    },
    {
      "constant": true,
      "inputs": [
        {
          "name": "_bountyId",
          "type": "uint256"
        }
      ],
      "name": "isBountyOpened",
      "outputs": [
        {
          "name": "",
          "type": "bool"
        }
      ],
      "payable": false,
      "stateMutability": "view",
      "type": "function",
      "signature": "0xd2952de7"
    },
    {
      "constant": false,
      "inputs": [
        {
          "name": "amount",
          "type": "uint256"
        },
        {
          "name": "title",
          "type": "string"
        },
        {
          "name": "description",
          "type": "string"
        }
      ],
      "name": "createBounty",
      "outputs": [
        {
          "name": "",
          "type": "uint256"
        }
      ],
      "payable": true,
      "stateMutability": "payable",
      "type": "function",
      "signature": "0x4b36ff1b"
    },
    {
      "constant": true,
      "inputs": [
        {
          "name": "bountyId",
          "type": "uint256"
        }
      ],
      "name": "getBountyInfos",
      "outputs": [
        {
          "name": "title",
          "type": "string"
        },
        {
          "name": "description",
          "type": "string"
        },
        {
          "name": "amount",
          "type": "uint256"
        },
        {
          "name": "id",
          "type": "uint256"
        },
        {
          "name": "creator",
          "type": "address"
        },
        {
          "name": "isOpened",
          "type": "bool"
        }
      ],
      "payable": false,
      "stateMutability": "view",
      "type": "function",
      "signature": "0x73c3454b"
    },
    {
      "constant": true,
      "inputs": [],
      "name": "getLastBountyId",
      "outputs": [
        {
          "name": "",
          "type": "uint256"
        }
      ],
      "payable": false,
      "stateMutability": "view",
      "type": "function",
      "signature": "0xc4e8ac41"
    },
    {
      "constant": false,
      "inputs": [
        {
          "name": "description",
          "type": "string"
        },
        {
          "name": "id",
          "type": "uint256"
        },
        {
          "name": "workFileHash",
          "type": "string"
        }
      ],
      "name": "submitWork",
      "outputs": [
        {
          "name": "newWorkId",
          "type": "uint256"
        }
      ],
      "payable": false,
      "stateMutability": "nonpayable",
      "type": "function",
      "signature": "0xe04286c0"
    },
    {
      "constant": false,
      "inputs": [
        {
          "name": "_bountyId",
          "type": "uint256"
        },
        {
          "name": "_workId",
          "type": "uint256"
        }
      ],
      "name": "approveWork",
      "outputs": [],
      "payable": false,
      "stateMutability": "nonpayable",
      "type": "function",
      "signature": "0xc5df0431"
    },
    {
      "constant": false,
      "inputs": [
        {
          "name": "_bountyId",
          "type": "uint256"
        },
        {
          "name": "_workId",
          "type": "uint256"
        }
      ],
      "name": "rejectWork",
      "outputs": [],
      "payable": false,
      "stateMutability": "nonpayable",
      "type": "function",
      "signature": "0x539a5a29"
    },
    {
      "constant": true,
      "inputs": [
        {
          "name": "_bountyId",
          "type": "uint256"
        }
      ],
      "name": "getWorkProposedIds",
      "outputs": [
        {
          "name": "",
          "type": "uint256[]"
        }
      ],
      "payable": false,
      "stateMutability": "view",
      "type": "function",
      "signature": "0x419e75ef"
    },
    {
      "constant": true,
      "inputs": [
        {
          "name": "_workId",
          "type": "uint256"
        }
      ],
      "name": "getWorkInfos",
      "outputs": [
        {
          "name": "id",
          "type": "uint256"
        },
        {
          "name": "description",
          "type": "string"
        },
        {
          "name": "workFileHash",
          "type": "string"
        },
        {
          "name": "isDenied",
          "type": "bool"
        },
        {
          "name": "doer",
          "type": "address"
        },
        {
          "name": "approved",
          "type": "bool"
        }
      ],
      "payable": false,
      "stateMutability": "view",
      "type": "function",
      "signature": "0x4602d32f"
    },
    {
      "constant": false,
      "inputs": [],
      "name": "withdrawPending",
      "outputs": [],
      "payable": false,
      "stateMutability": "nonpayable",
      "type": "function",
      "signature": "0x7edbceb1"
    }
  ],
  "bytecode": "0x608060405260008060146101000a81548160ff02191690831515021790555034801561002a57600080fd5b50336000806101000a81548173ffffffffffffffffffffffffffffffffffffffff021916908373ffffffffffffffffffffffffffffffffffffffff16021790555061312f8061007a6000396000f3fe608060405260043610610149576000357c0100000000000000000000000000000000000000000000000000000000900463ffffffff1680630ac59a8c1461014e5780630f28daa1146101b35780632de0b04914610202578063319933941461027d578063382e4f39146102945780633a4634ce146103d1578063419e75ef146104365780634602d32f146104c65780634914f482146106365780634b36ff1b1461068f578063539a5a29146107ff57806359758cde1461084457806363ae23d81461089357806373c3454b1461090257806375f12b2114610a6e5780637a5f264814610a9d5780637edbceb114610b185780638da5cb5b14610b2f578063a1d2c54814610b86578063c4e8ac4114610cfa578063c5df043114610d25578063d2952de714610d6a578063d6bb920a14610dbd578063e04286c014610e2c578063f3f4370314610fa9575b600080fd5b34801561015a57600080fd5b5061019d6004803603602081101561017157600080fd5b81019080803573ffffffffffffffffffffffffffffffffffffffff16906020019092919050505061100e565b6040518082815260200191505060405180910390f35b3480156101bf57600080fd5b506101ec600480360360208110156101d657600080fd5b8101908080359060200190929190505050611026565b6040518082815260200191505060405180910390f35b34801561020e57600080fd5b5061023b6004803603602081101561022557600080fd5b81019080803590602001909291905050506110e8565b604051808273ffffffffffffffffffffffffffffffffffffffff1673ffffffffffffffffffffffffffffffffffffffff16815260200191505060405180910390f35b34801561028957600080fd5b5061029261111b565b005b3480156102a057600080fd5b506102cd600480360360208110156102b757600080fd5b8101908080359060200190929190505050611193565b6040518086151515158152602001851515151581526020018481526020018060200180602001838103835285818151815260200191508051906020019080838360005b8381101561032b578082015181840152602081019050610310565b50505050905090810190601f1680156103585780820380516001836020036101000a031916815260200191505b50838103825284818151815260200191508051906020019080838360005b83811015610391578082015181840152602081019050610376565b50505050905090810190601f1680156103be5780820380516001836020036101000a031916815260200191505b5097505050505050505060405180910390f35b3480156103dd57600080fd5b50610420600480360360208110156103f457600080fd5b81019080803573ffffffffffffffffffffffffffffffffffffffff169060200190929190505050611313565b6040518082815260200191505060405180910390f35b34801561044257600080fd5b5061046f6004803603602081101561045957600080fd5b810190808035906020019092919050505061132b565b6040518080602001828103825283818151815260200191508051906020019060200280838360005b838110156104b2578082015181840152602081019050610497565b505050509050019250505060405180910390f35b3480156104d257600080fd5b506104ff600480360360208110156104e957600080fd5b8101908080359060200190929190505050611396565b604051808781526020018060200180602001861515151581526020018573ffffffffffffffffffffffffffffffffffffffff1673ffffffffffffffffffffffffffffffffffffffff16815260200184151515158152602001838103835288818151815260200191508051906020019080838360005b8381101561058f578082015181840152602081019050610574565b50505050905090810190601f1680156105bc5780820380516001836020036101000a031916815260200191505b50838103825287818151815260200191508051906020019080838360005b838110156105f55780820151818401526020810190506105da565b50505050905090810190601f1680156106225780820380516001836020036101000a031916815260200191505b509850505050505050505060405180910390f35b34801561064257600080fd5b506106796004803603604081101561065957600080fd5b8101908080359060200190929190803590602001909291905050506115ea565b6040518082815260200191505060405180910390f35b6107e9600480360360608110156106a557600080fd5b8101908080359060200190929190803590602001906401000000008111156106cc57600080fd5b8201836020820111156106de57600080fd5b8035906020019184600183028401116401000000008311171561070057600080fd5b91908080601f016020809104026020016040519081016040528093929190818152602001838380828437600081840152601f19601f8201169050808301925050505050505091929192908035906020019064010000000081111561076357600080fd5b82018360208201111561077557600080fd5b8035906020019184600183028401116401000000008311171561079757600080fd5b91908080601f016020809104026020016040519081016040528093929190818152602001838380828437600081840152601f19601f82011690508083019250505050505050919291929050505061161a565b6040518082815260200191505060405180910390f35b34801561080b57600080fd5b506108426004803603604081101561082257600080fd5b8101908080359060200190929190803590602001909291905050506119ae565b005b34801561085057600080fd5b5061087d6004803603602081101561086757600080fd5b8101908080359060200190929190505050611da0565b6040518082815260200191505060405180910390f35b34801561089f57600080fd5b506108ec600480360360408110156108b657600080fd5b81019080803573ffffffffffffffffffffffffffffffffffffffff16906020019092919080359060200190929190505050611db8565b6040518082815260200191505060405180910390f35b34801561090e57600080fd5b5061093b6004803603602081101561092557600080fd5b8101908080359060200190929190505050611de8565b6040518080602001806020018781526020018681526020018573ffffffffffffffffffffffffffffffffffffffff1673ffffffffffffffffffffffffffffffffffffffff16815260200184151515158152602001838103835289818151815260200191508051906020019080838360005b838110156109c75780820151818401526020810190506109ac565b50505050905090810190601f1680156109f45780820380516001836020036101000a031916815260200191505b50838103825288818151815260200191508051906020019080838360005b83811015610a2d578082015181840152602081019050610a12565b50505050905090810190601f168015610a5a5780820380516001836020036101000a031916815260200191505b509850505050505050505060405180910390f35b348015610a7a57600080fd5b50610a836120a5565b604051808215151515815260200191505060405180910390f35b348015610aa957600080fd5b50610ad660048036036020811015610ac057600080fd5b81019080803590602001909291905050506120b8565b604051808273ffffffffffffffffffffffffffffffffffffffff1673ffffffffffffffffffffffffffffffffffffffff16815260200191505060405180910390f35b348015610b2457600080fd5b50610b2d6120eb565b005b348015610b3b57600080fd5b50610b446122fa565b604051808273ffffffffffffffffffffffffffffffffffffffff1673ffffffffffffffffffffffffffffffffffffffff16815260200191505060405180910390f35b348015610b9257600080fd5b50610bbf60048036036020811015610ba957600080fd5b810190808035906020019092919050505061231f565b6040518080602001806020018715151515815260200186151515158152602001851515151581526020018473ffffffffffffffffffffffffffffffffffffffff1673ffffffffffffffffffffffffffffffffffffffff168152602001838103835289818151815260200191508051906020019080838360005b83811015610c53578082015181840152602081019050610c38565b50505050905090810190601f168015610c805780820380516001836020036101000a031916815260200191505b50838103825288818151815260200191508051906020019080838360005b83811015610cb9578082015181840152602081019050610c9e565b50505050905090810190601f168015610ce65780820380516001836020036101000a031916815260200191505b509850505050505050505060405180910390f35b348015610d0657600080fd5b50610d0f6124d2565b6040518082815260200191505060405180910390f35b348015610d3157600080fd5b50610d6860048036036040811015610d4857600080fd5b8101908080359060200190929190803590602001909291905050506124df565b005b348015610d7657600080fd5b50610da360048036036020811015610d8d57600080fd5b8101908080359060200190929190505050612a5e565b604051808215151515815260200191505060405180910390f35b348015610dc957600080fd5b50610e1660048036036040811015610de057600080fd5b81019080803573ffffffffffffffffffffffffffffffffffffffff16906020019092919080359060200190929190505050612b2d565b6040518082815260200191505060405180910390f35b348015610e3857600080fd5b50610f9360048036036060811015610e4f57600080fd5b8101908080359060200190640100000000811115610e6c57600080fd5b820183602082011115610e7e57600080fd5b80359060200191846001830284011164010000000083111715610ea057600080fd5b91908080601f016020809104026020016040519081016040528093929190818152602001838380828437600081840152601f19601f8201169050808301925050505050505091929192908035906020019092919080359060200190640100000000811115610f0d57600080fd5b820183602082011115610f1f57600080fd5b80359060200191846001830284011164010000000083111715610f4157600080fd5b91908080601f016020809104026020016040519081016040528093929190818152602001838380828437600081840152601f19601f820116905080830192505050505050509192919290505050612b5d565b6040518082815260200191505060405180910390f35b348015610fb557600080fd5b50610ff860048036036020811015610fcc57600080fd5b81019080803573ffffffffffffffffffffffffffffffffffffffff169060200190929190505050612f7c565b6040518082815260200191505060405180910390f35b60046020528060005260406000206000915090505481565b600081600015156002600083815260200190815260200160002060000160019054906101000a900460ff161515141515156110c9576040517f08c379a000000000000000000000000000000000000000000000000000000000815260040180806020018281038252601a8152602001807f5468697320626f756e747920646f6573206e6f7420657869737400000000000081525060200191505060405180910390fd5b6008600084815260200190815260200160002080549050915050919050565b60036020528060005260406000206000915054906101000a900473ffffffffffffffffffffffffffffffffffffffff1681565b6000809054906101000a900473ffffffffffffffffffffffffffffffffffffffff1673ffffffffffffffffffffffffffffffffffffffff163373ffffffffffffffffffffffffffffffffffffffff1614151561117657600080fd5b6001600060146101000a81548160ff021916908315150217905550565b60026020528060005260406000206000915090508060000160009054906101000a900460ff16908060000160019054906101000a900460ff1690806001015490806002018054600181600116156101000203166002900480601f01602080910402602001604051908101604052809291908181526020018280546001816001161561010002031660029004801561126b5780601f106112405761010080835404028352916020019161126b565b820191906000526020600020905b81548152906001019060200180831161124e57829003601f168201915b505050505090806003018054600181600116156101000203166002900480601f0160208091040260200160405190810160405280929190818152602001828054600181600116156101000203166002900480156113095780601f106112de57610100808354040283529160200191611309565b820191906000526020600020905b8154815290600101906020018083116112ec57829003601f168201915b5050505050905085565b600b6020528060005260406000206000915090505481565b60606008600083815260200190815260200160002080548060200260200160405190810160405280929190818152602001828054801561138a57602002820191906000526020600020905b815481526020019060010190808311611376575b50505050509050919050565b600060608060008060006113a8612fd7565b6007600089815260200190815260200160002060c06040519081016040529081600082018054600181600116156101000203166002900480601f0160208091040260200160405190810160405280929190818152602001828054600181600116156101000203166002900480156114605780601f1061143557610100808354040283529160200191611460565b820191906000526020600020905b81548152906001019060200180831161144357829003601f168201915b50505050508152602001600182018054600181600116156101000203166002900480601f0160208091040260200160405190810160405280929190818152602001828054600181600116156101000203166002900480156115025780601f106114d757610100808354040283529160200191611502565b820191906000526020600020905b8154815290600101906020018083116114e557829003601f168201915b505050505081526020016002820160009054906101000a900460ff161515151581526020016002820160019054906101000a900460ff161515151581526020016002820160029054906101000a900460ff161515151581526020016002820160039054906101000a900473ffffffffffffffffffffffffffffffffffffffff1673ffffffffffffffffffffffffffffffffffffffff1673ffffffffffffffffffffffffffffffffffffffff16815250509050878160200151826000015183604001518460a0015185608001518494508393509650965096509650965096505091939550919395565b60086020528160005260406000208181548110151561160557fe5b90600052602060002001600091509150505481565b60008060149054906101000a900460ff1615151561163757600080fd5b8334101515156116fb576040517f08c379a00000000000000000000000000000000000000000000000000000000081526004018080602001828103825260548152602001807f45746865722073656e74206d757374206265206174206c65617374206571756181526020017f6c20746f2074686520616d6f756e7420796f752772652077696c6c696e67207481526020017f6f2070617920666f722074686520626f756e747900000000000000000000000081525060600191505060405180910390fd5b61170361302a565b60a060405190810160405280600115158152602001600115158152602001868152602001858152602001848152509050600061173f6001612f94565b9050336003600083815260200190815260200160002060006101000a81548173ffffffffffffffffffffffffffffffffffffffff021916908373ffffffffffffffffffffffffffffffffffffffff160217905550600460003373ffffffffffffffffffffffffffffffffffffffff1673ffffffffffffffffffffffffffffffffffffffff16815260200190815260200160002060008154809291906001019190505550600560003373ffffffffffffffffffffffffffffffffffffffff1673ffffffffffffffffffffffffffffffffffffffff168152602001908152602001600020819080600181540180825580915050906001820390600052602060002001600090919290919091505550816002600083815260200190815260200160002060008201518160000160006101000a81548160ff02191690831515021790555060208201518160000160016101000a81548160ff0219169083151502179055506040820151816001015560608201518160020190805190602001906118c592919061305e565b5060808201518160030190805190602001906118e292919061305e565b50905050853411156119545760006119038734612fb590919063ffffffff16565b905080600d60003373ffffffffffffffffffffffffffffffffffffffff1673ffffffffffffffffffffffffffffffffffffffff16815260200190815260200160002060008282540192505081905550505b3373ffffffffffffffffffffffffffffffffffffffff167fe833fe7ec334a36fe5fb99c0eb05d0ccbc7e61c17d9ba40efa82a6891bcfe016826040518082815260200191505060405180910390a280925050509392505050565b600060149054906101000a900460ff161515156119ca57600080fd5b81600015156002600083815260200190815260200160002060000160019054906101000a900460ff16151514151515611a6b576040517f08c379a000000000000000000000000000000000000000000000000000000000815260040180806020018281038252601a8152602001807f5468697320626f756e747920646f6573206e6f7420657869737400000000000081525060200191505060405180910390fd5b81600015156007600083815260200190815260200160002060020160019054906101000a900460ff16151514151515611b0c576040517f08c379a00000000000000000000000000000000000000000000000000000000081526004018080602001828103825260188152602001807f5468697320776f726b20646f6573206e6f74206578697374000000000000000081525060200191505060405180910390fd5b83600115156002600083815260200190815260200160002060000160009054906101000a900460ff161515141515611bac576040517f08c379a000000000000000000000000000000000000000000000000000000000815260040180806020018281038252601a8152602001807f426f756e7479206e6f74206f70656e656420666f7220776f726b00000000000081525060200191505060405180910390fd5b3373ffffffffffffffffffffffffffffffffffffffff166003600087815260200190815260200160002060009054906101000a900473ffffffffffffffffffffffffffffffffffffffff1673ffffffffffffffffffffffffffffffffffffffff16141515611c82576040517f08c379a000000000000000000000000000000000000000000000000000000000815260040180806020018281038252601a8152602001807f4d7573742062652074686520626f756e74792063726561746f7200000000000081525060200191505060405180910390fd5b84600a600086815260200190815260200160002054141515611d32576040517f08c379a00000000000000000000000000000000000000000000000000000000081526004018080602001828103825260238152602001807f5468697320776f726b20646f6573206e6f742066696c6c207468697320626f7581526020017f6e7479000000000000000000000000000000000000000000000000000000000081525060400191505060405180910390fd5b60016007600086815260200190815260200160002060020160006101000a81548160ff021916908315150217905550847f3b5842158db85ec7b284e2f15550fc6c027b2fd6807d8a8087927899447176f2856040518082815260200191505060405180910390a25050505050565b600a6020528060005260406000206000915090505481565b600c60205281600052604060002081815481101515611dd357fe5b90600052602060002001600091509150505481565b60608060008060008086600015156002600083815260200190815260200160002060000160019054906101000a900460ff16151514151515611e92576040517f08c379a000000000000000000000000000000000000000000000000000000000815260040180806020018281038252601a8152602001807f5468697320626f756e747920646f6573206e6f7420657869737400000000000081525060200191505060405180910390fd5b611e9a61302a565b600260008a815260200190815260200160002060a060405190810160405290816000820160009054906101000a900460ff161515151581526020016000820160019054906101000a900460ff1615151515815260200160018201548152602001600282018054600181600116156101000203166002900480601f016020809104026020016040519081016040528092919081815260200182805460018160011615610100020316600290048015611f925780601f10611f6757610100808354040283529160200191611f92565b820191906000526020600020905b815481529060010190602001808311611f7557829003601f168201915b50505050508152602001600382018054600181600116156101000203166002900480601f0160208091040260200160405190810160405280929190818152602001828054600181600116156101000203166002900480156120345780601f1061200957610100808354040283529160200191612034565b820191906000526020600020905b81548152906001019060200180831161201757829003601f168201915b50505050508152505090508060600151816080015182604001518b600360008e815260200190815260200160002060009054906101000a900473ffffffffffffffffffffffffffffffffffffffff168560000151859550849450975097509750975097509750505091939550919395565b600060149054906101000a900460ff1681565b60096020528060005260406000206000915054906101000a900473ffffffffffffffffffffffffffffffffffffffff1681565b600060149054906101000a900460ff1615151561210757600080fd5b6000600d60003373ffffffffffffffffffffffffffffffffffffffff1673ffffffffffffffffffffffffffffffffffffffff168152602001908152602001600020541115156121e4576040517f08c379a000000000000000000000000000000000000000000000000000000000815260040180806020018281038252602f8152602001807f596f752062616c616e6365206973206e756c2c20796f752063616e277420776981526020017f74686472617720616e797468696e67000000000000000000000000000000000081525060400191505060405180910390fd5b6000600d60003373ffffffffffffffffffffffffffffffffffffffff1673ffffffffffffffffffffffffffffffffffffffff1681526020019081526020016000205490506000600d60003373ffffffffffffffffffffffffffffffffffffffff1673ffffffffffffffffffffffffffffffffffffffff168152602001908152602001600020819055503373ffffffffffffffffffffffffffffffffffffffff166108fc829081150290604051600060405180830381858888f193505050501580156122b3573d6000803e3d6000fd5b503373ffffffffffffffffffffffffffffffffffffffff167f4b32e41f59de0c28082b3c9d6fc07206418a2f540f6a172b72985c3756e4634460405160405180910390a250565b6000809054906101000a900473ffffffffffffffffffffffffffffffffffffffff1681565b6007602052806000526040600020600091509050806000018054600181600116156101000203166002900480601f0160208091040260200160405190810160405280929190818152602001828054600181600116156101000203166002900480156123cb5780601f106123a0576101008083540402835291602001916123cb565b820191906000526020600020905b8154815290600101906020018083116123ae57829003601f168201915b505050505090806001018054600181600116156101000203166002900480601f0160208091040260200160405190810160405280929190818152602001828054600181600116156101000203166002900480156124695780601f1061243e57610100808354040283529160200191612469565b820191906000526020600020905b81548152906001019060200180831161244c57829003601f168201915b5050505050908060020160009054906101000a900460ff16908060020160019054906101000a900460ff16908060020160029054906101000a900460ff16908060020160039054906101000a900473ffffffffffffffffffffffffffffffffffffffff16905086565b6000600160000154905090565b600060149054906101000a900460ff161515156124fb57600080fd5b81600015156002600083815260200190815260200160002060000160019054906101000a900460ff1615151415151561259c576040517f08c379a000000000000000000000000000000000000000000000000000000000815260040180806020018281038252601a8152602001807f5468697320626f756e747920646f6573206e6f7420657869737400000000000081525060200191505060405180910390fd5b81600015156007600083815260200190815260200160002060020160019054906101000a900460ff1615151415151561263d576040517f08c379a00000000000000000000000000000000000000000000000000000000081526004018080602001828103825260188152602001807f5468697320776f726b20646f6573206e6f74206578697374000000000000000081525060200191505060405180910390fd5b83600115156002600083815260200190815260200160002060000160009054906101000a900460ff1615151415156126dd576040517f08c379a000000000000000000000000000000000000000000000000000000000815260040180806020018281038252601a8152602001807f426f756e7479206e6f74206f70656e656420666f7220776f726b00000000000081525060200191505060405180910390fd5b3373ffffffffffffffffffffffffffffffffffffffff166003600087815260200190815260200160002060009054906101000a900473ffffffffffffffffffffffffffffffffffffffff1673ffffffffffffffffffffffffffffffffffffffff161415156127b3576040517f08c379a000000000000000000000000000000000000000000000000000000000815260040180806020018281038252601a8152602001807f4d7573742062652074686520626f756e74792063726561746f7200000000000081525060200191505060405180910390fd5b84600a600086815260200190815260200160002054141515612863576040517f08c379a00000000000000000000000000000000000000000000000000000000081526004018080602001828103825260238152602001807f5468697320776f726b20646f6573206e6f742066696c6c207468697320626f7581526020017f6e7479000000000000000000000000000000000000000000000000000000000081525060400191505060405180910390fd5b6007600085815260200190815260200160002060020160009054906101000a900460ff16151515612922576040517f08c379a00000000000000000000000000000000000000000000000000000000081526004018080602001828103825260238152602001807f5468697320776f726b2068617320616c7265616479206265656e2072656a656381526020017f746564000000000000000000000000000000000000000000000000000000000081525060400191505060405180910390fd5b60006002600087815260200190815260200160002060000160006101000a81548160ff02191690831515021790555060016007600086815260200190815260200160002060020160026101000a81548160ff02191690831515021790555060006007600086815260200190815260200160002060020160039054906101000a900473ffffffffffffffffffffffffffffffffffffffff1690506002600087815260200190815260200160002060010154600d60008373ffffffffffffffffffffffffffffffffffffffff1673ffffffffffffffffffffffffffffffffffffffff16815260200190815260200160002060008282540192505081905550857faf8c00204411d5f080de0913186cb59749c06fed4928e61473415b44facf6d8e866040518082815260200191505060405180910390a2505050505050565b600081600015156002600083815260200190815260200160002060000160019054906101000a900460ff16151514151515612b01576040517f08c379a000000000000000000000000000000000000000000000000000000000815260040180806020018281038252601a8152602001807f5468697320626f756e747920646f6573206e6f7420657869737400000000000081525060200191505060405180910390fd5b6002600084815260200190815260200160002060000160009054906101000a900460ff16915050919050565b600560205281600052604060002081815481101515612b4857fe5b90600052602060002001600091509150505481565b60008060149054906101000a900460ff16151515612b7a57600080fd5b82600015156002600083815260200190815260200160002060000160019054906101000a900460ff16151514151515612c1b576040517f08c379a000000000000000000000000000000000000000000000000000000000815260040180806020018281038252601a8152602001807f5468697320626f756e747920646f6573206e6f7420657869737400000000000081525060200191505060405180910390fd5b83600115156002600083815260200190815260200160002060000160009054906101000a900460ff161515141515612cbb576040517f08c379a000000000000000000000000000000000000000000000000000000000815260040180806020018281038252601a8152602001807f426f756e7479206e6f74206f70656e656420666f7220776f726b00000000000081525060200191505060405180910390fd5b612cc3612fd7565b60c0604051908101604052808681526020018881526020016000151581526020016001151581526020016000151581526020013373ffffffffffffffffffffffffffffffffffffffff168152509050612d1c6006612f94565b935060086000878152602001908152602001600020849080600181540180825580915050906001820390600052602060002001600090919290919091505550600c60003373ffffffffffffffffffffffffffffffffffffffff1673ffffffffffffffffffffffffffffffffffffffff16815260200190815260200160002084908060018154018082558091505090600182039060005260206000200160009091929091909150555085600a60008681526020019081526020016000208190555080600760008681526020019081526020016000206000820151816000019080519060200190612e0c92919061305e565b506020820151816001019080519060200190612e2992919061305e565b5060408201518160020160006101000a81548160ff02191690831515021790555060608201518160020160016101000a81548160ff02191690831515021790555060808201518160020160026101000a81548160ff02191690831515021790555060a08201518160020160036101000a81548173ffffffffffffffffffffffffffffffffffffffff021916908373ffffffffffffffffffffffffffffffffffffffff160217905550905050600b60003373ffffffffffffffffffffffffffffffffffffffff1673ffffffffffffffffffffffffffffffffffffffff168152602001908152602001600020600081548092919060010191905055503373ffffffffffffffffffffffffffffffffffffffff16867fd45360172e8a0f311f4cd7fdfb954f4eff78f5938f808c776765c73647ef4aa3866040518082815260200191505060405180910390a35050509392505050565b600d6020528060005260406000206000915090505481565b60006001826000016000828254019250508190555081600001549050919050565b6000828211151515612fc657600080fd5b600082840390508091505092915050565b60c0604051908101604052806060815260200160608152602001600015158152602001600015158152602001600015158152602001600073ffffffffffffffffffffffffffffffffffffffff1681525090565b60a0604051908101604052806000151581526020016000151581526020016000815260200160608152602001606081525090565b828054600181600116156101000203166002900490600052602060002090601f016020900481019282601f1061309f57805160ff19168380011785556130cd565b828001600101855582156130cd579182015b828111156130cc5782518255916020019190600101906130b1565b5b5090506130da91906130de565b5090565b61310091905b808211156130fc5760008160009055506001016130e4565b5090565b9056fea165627a7a72305820f21f9e906a654aee895f95e38ecf8c01d0b4998ec6e7da93bf48b135f3cb15c00029",
  "source": "pragma solidity ^0.5.0;\n\nimport \"openzeppelin-solidity/contracts/math/SafeMath.sol\";\nimport \"openzeppelin-solidity/contracts/drafts/Counter.sol\";\n\ncontract BountyApp {\n    using SafeMath for uint256;\n    using Counter for Counter.Counter;\n    \n    address public owner;\n\n    bool public stopped = false;\n    \n    /**\n     * @dev Bounty struct\n     * Holds all the infos about a job offer\n     */\n    struct Bounty {\n        // If the offer is still opened\n        bool isOpened;\n        // If the offer exist\n        bool exist;\n        // The amount that will be payed for this offer\n        uint256 amount;\n        // Title of the offer\n        string title;\n        // The description of the offer\n        string description;\n        \n    }\n    \n    // Id of the bounties that increment by one for each new bounty\n    Counter.Counter private bountyId;\n    // Mapping between the bounty id and the bounty struct\n    mapping(uint256 => Bounty) public idToBounty;\n    // Mapping between a bountyId and its creator\n    mapping(uint256 => address) public bountyIdToCreator;\n    // Mapping from creator to number of bounty created\n    mapping(address => uint256) public createdBountyCount;\n    // Mapping between a creator and the list of bountyId he created\n    mapping(address => uint256[]) public creatorToBountyIds;\n    \n    \n    /**\n     * @dev Work struct\n     * It holds all the infos about a work that is submitted to \n     * fullfill a bounty\n     */\n    struct Work {\n        string workFileHash;\n        string description;\n        // if the bounty creator refused it\n        bool denied;\n        bool exist;\n        // If the bounty creator approved this work\n        bool approved;\n        address doer;\n    }\n\n    // Id of the works that increment by one for each new work\n    Counter.Counter private workId;\n    // Mapping between a work id and the work struct\n    mapping(uint256 => Work) public idToWork;\n    // mapping between a bounty id and the ids of the works that have been submitted\n    mapping(uint256 => uint256[]) public bountyIdToWorkIds;\n    // Mapping between work and its doer\n    mapping(uint256 => address) public workIdToDoer;\n    // Mapping between a work and the bounty it aims\n    mapping(uint256 => uint256) public workIdToBountyId;\n    // Map between an address and the count of works proposed by this address\n    mapping(address => uint256) public worksProposedCount;\n    // Mapping between an address and the work ids that it has proposed\n    mapping(address => uint256[]) public doerToWorkIds;\n    \n    \n    // withdrawal pending for job posters \n    mapping(address => uint256) public pendingWithdrawals;\n\n\n    /// EVENTS\n    event NewBounty(uint256 bountyId, address indexed creator);\n    event NewWork(uint256 workId, uint256 indexed bountyId, address indexed hunter);\n    event WorkApproved(uint256 workId, uint256 indexed bountyId);\n    event WorkRejected(uint256 workId, uint256 indexed bountyId);\n    event BalanceWithdrawed(address indexed withdrawer);\n    \n    /**\n     * @dev Constructor that set the owner of the contract\n     */\n    constructor() public {\n        owner = msg.sender;\n    }\n    \n    /**\n     * @dev Modifier that avoid a function to run when we are \n     * in an emergency situation (Circuit Breaker design pattern)\n     */\n    modifier stopInEmergency { require(!stopped); _; }\n\n    /**\n     * @dev Modifier that make sure this function can run only when \n     * the smart contract is in emergency mode (Circuit Breaker design pattern)\n     */\n    modifier onlyInEmergency { require(stopped); _; }\n\n\n    /**\n     * @dev Modifier that checks if the function caller is also the smart contract owner\n     */\n    modifier onlyOwner { require(msg.sender == owner); _; }\n\n\n    /**\n     * @dev Modifier that check if a bounty exists\n     * @param id uint256 Bounty id\n     */\n    modifier bountyExist(uint256 id) {\n        require(idToBounty[id].exist != false, \"This bounty does not exist\");\n        _;\n    }\n\n\n    /**\n     * @dev Modifier that check if a work exists\n     * @param id uint256 Work id\n     */\n    modifier workExist(uint256 id) {\n        require(idToWork[id].exist != false, \"This work does not exist\");\n        _;\n    }\n\n\n    /**\n     * @dev Modifier that checks that an bounty is still open\n     * @param id uint256 Bounty id\n     */\n    modifier bountyOpen(uint256 id) {\n        require(idToBounty[id].isOpened == true, \"Bounty not opened for work\");\n        _;\n    }\n\n\n    /**\n     * @dev Activate the emergency mode (Circuit Breaker design patter)\n     * Only the owner of the smart contract can do it\n     */\n    function activateCircuitBreaker() onlyOwner public {\n        stopped = true;\n    }\n    \n\n    /**\n     * @dev Returns the number of work that has been submitted for this bounty\n     * @param id uint256 Id of the job \n     * @return uint256\n     */\n    function bountyCountWorks(uint256 id) public view bountyExist(id) returns (uint256) {\n        return bountyIdToWorkIds[id].length;\n    }\n\n\n    /**\n     * @dev Returns true if the bounty has not been filled yet\n     * @param _bountyId uint256 Id of the bounty\n     * @return bool\n     */\n    function isBountyOpened(uint256 _bountyId) public view bountyExist(_bountyId) returns (bool) {\n        return idToBounty[_bountyId].isOpened;\n    }\n\n\n    /**\n     * @dev Create a new bounty as a creator the caller\n     * The user must provide at least the amount that he is willing to pay for this bounty\n     * @param amount uint256 Amount to be paid when the bounty is done\n     * @param title string Title of the bounty to create\n     * @param description string Description of the bounty \n     * @return bountyId uint256\n     */\n    function createBounty(uint256 amount, string memory title, string memory description) stopInEmergency public payable returns (uint256) {\n        // Check that the user pays at leat the amount he is willing to pay for the bounty\n        require(msg.value >= amount, \"Ether sent must be at least equal to the amount you're willing to pay for the bounty\");\n        // Create a new bounty\n        Bounty memory newBounty = Bounty(true, true, amount, title, description);\n        // Increment the bountyId\n        uint256 newBountyId = bountyId.next();\n        // Associate the bounty id to the creator address\n        bountyIdToCreator[newBountyId] = msg.sender;\n        // Increment the number of bounty created by this user\n        createdBountyCount[msg.sender]++;\n        // Add the bounty id to the list of bounty ids this user has created\n        creatorToBountyIds[msg.sender].push(newBountyId);\n        // Add the bounty struct to the mapping of bountyId to job\n        idToBounty[newBountyId] = newBounty;\n        \n        // Add to the user balance the extra he would have paid\n        // Here we implement the withdraw design pattern to avoid someone to block the contract\n        if(msg.value > amount) {\n            uint256 change = msg.value.sub(amount);\n            pendingWithdrawals[msg.sender] += change;\n        }\n        \n        // Emit NewBounty event\n        emit NewBounty(newBountyId, msg.sender);\n\n        // Return the bounty id of the bounty we just created\n        return newBountyId;\n    }\n\n\n    /**\n     * @dev Get all the infos abount a bounty\n     * @param bountyId uint256 id of the bounty \n     * @return title string Title of the bounty\n     * @return description string Description of the bounty\n     * @return amount uint256 The amount that will be paid for this bounty\n     * @return id uint256 Bounty id\n     * @return creator Address of the bounty creator\n     * @return isOpened bool If the bounty is still opened for work submission\n     */\n    function getBountyInfos(uint256 bountyId) public view bountyExist(bountyId) returns (\n        string memory title,\n        string memory description,\n        uint256 amount,\n        uint256 id,\n        address creator,\n        bool isOpened\n    )\n    {\n        Bounty memory bounty = idToBounty[bountyId];\n        return (bounty.title, bounty.description, bounty.amount, bountyId, bountyIdToCreator[bountyId], bounty.isOpened);\n    }\n\n    /**\n     * @dev Returns the last bounty id that was created\n     * @return bountyId uint256 The last bounty id \n     */\n    function getLastBountyId() public view returns (uint256) {\n        return bountyId.current;\n    }\n    \n    \n    /**\n     * @dev Submit the work that has been done for approval\n     * @param description string Description of the work\n     * @param id uint256 Id of the bounty the work has been done for\n     * @notice Use IFPS to submit the work\n     * @return newWorkId uint256 The id of the new work\n     */\n    function submitWork(string memory description, uint256 id, string memory workFileHash) public stopInEmergency bountyExist(id) bountyOpen(id) returns (uint256 newWorkId){\n        // Create the new work\n        Work memory work = Work(workFileHash, description, false, true, false, msg.sender);\n        // Increment the workId\n        newWorkId = workId.next();\n        // Add the work to the list of work that has been submitted for this bounty\n        bountyIdToWorkIds[id].push(newWorkId);\n        // Associate the work to its doer\n        doerToWorkIds[msg.sender].push(newWorkId);\n        // Associate the work with the job id it aims to fill\n        workIdToBountyId[newWorkId] = id;\n        // Map the work id to the work struct\n        idToWork[newWorkId] = work;\n        // Increment the number of works submitted\n        worksProposedCount[msg.sender]++;\n\n        // Emit NewWork event\n        emit NewWork(newWorkId, id, msg.sender);\n    }\n    \n    \n    /**\n     * @dev Bounty owner call it to approve a work submitted for this work\n     * @param _bountyId uint256 Id of the bounty the work is linked to\n     * @param _workId uint256 Id of the work that will be approved\n     */\n    function approveWork(uint256 _bountyId, uint256 _workId) public stopInEmergency bountyExist(_bountyId) workExist(_workId) bountyOpen(_bountyId){\n        // Check the message sender is also the creator of the bounty\n        require(bountyIdToCreator[_bountyId] == msg.sender, \"Must be the bounty creator\");\n        // Check this work was for this bounty\n        require(workIdToBountyId[_workId] == _bountyId, \"This work does not fill this bounty\");\n        // Check that the work has not been rejected\n        require(!idToWork[_workId].denied, \"This work has already been rejected\");\n        \n        // Set the bounty to close\n        idToBounty[_bountyId].isOpened = false;\n        // Set the work as approved\n        idToWork[_workId].approved = true;\n        address hunter = idToWork[_workId].doer;\n        // Add the amount of the bounty to the hunter balance (for later withdraw)\n        pendingWithdrawals[hunter] += idToBounty[_bountyId].amount;\n        \n        // Emit event WorkApproved\n        emit WorkApproved(_workId, _bountyId);\n    }\n\n    /**\n     * @dev Bounty owner call it to reject a work submitted for this work\n     * @param _bountyId uint256 Id of the bounty the work is linked to\n     * @param _workId uint256 Id of the work that will be rejected\n     */\n    function rejectWork(uint256 _bountyId, uint256 _workId) public stopInEmergency bountyExist(_bountyId) workExist(_workId) bountyOpen(_bountyId){\n        // Check the message sender is also the creator of the work\n        require(bountyIdToCreator[_bountyId] == msg.sender, \"Must be the bounty creator\");\n        // Check this work was for this bounty\n        require(workIdToBountyId[_workId] == _bountyId, \"This work does not fill this bounty\");\n        \n        // Set the work as approved\n        idToWork[_workId].denied = true;\n        \n        // Emit event WorkApproved\n        emit WorkRejected(_workId, _bountyId);\n    }\n\n\n    /**\n     * @dev Returns an array of uint256 that the ids of the work that have been submitted for this bounty\n     * @param _bountyId uint256\n     */\n    function getWorkProposedIds(uint256 _bountyId) public view returns (uint256[] memory) {\n        return bountyIdToWorkIds[_bountyId];\n    }\n\n\n    /**\n     * @dev Return the infos of a work\n     * @param _workId uint256 Id of the work\n     * @return id uint256 Id of the work\n     * @return description string Description of the work\n     * @return isDenied bool If the work has been rejected or not\n     * @return doer address od the work doer\n     * @return approved book If the work has been approved\n     */\n    function getWorkInfos(uint256 _workId) public view returns (\n        uint256 id,\n        string memory description,\n        string memory workFileHash,\n        bool isDenied,\n        address doer,\n        bool approved\n    )\n    {\n        Work memory work = idToWork[_workId];\n        return (_workId, work.description, work.workFileHash, work.denied, work.doer, work.approved);\n    }\n    \n    \n    /**\n     * @dev Allow to withdraw a pending balance of a user\n     */\n    function withdrawPending()  stopInEmergency public {\n        require(pendingWithdrawals[msg.sender] > 0, \"You balance is nul, you can't withdraw anything\");\n        uint256 amount = pendingWithdrawals[msg.sender];\n        pendingWithdrawals[msg.sender] = 0;\n        msg.sender.transfer(amount);\n        emit BalanceWithdrawed(msg.sender);\n    }\n}",
  "sourcePath": "/Users/adriendulong/Documents/Dev/Crypto/Consensys/bountyApp/contracts/BountyApp.sol",
  "compiler": {
    "name": "solc",
    "version": "0.5.0+commit.1d4f565a.Emscripten.clang"
  },
  "schemaVersion": "3.0.1",
  "updatedAt": "2019-03-12T14:15:54.243Z",
  "devdoc": {
    "methods": {
      "activateCircuitBreaker()": {
        "details": "Activate the emergency mode (Circuit Breaker design patter) Only the owner of the smart contract can do it"
      },
      "approveWork(uint256,uint256)": {
        "details": "Bounty owner call it to approve a work submitted for this work",
        "params": {
          "_bountyId": "uint256 Id of the bounty the work is linked to",
          "_workId": "uint256 Id of the work that will be approved"
        }
      },
      "bountyCountWorks(uint256)": {
        "details": "Returns the number of work that has been submitted for this bounty",
        "params": {
          "id": "uint256 Id of the job "
        },
        "return": "uint256"
      },
      "constructor": {
        "details": "Constructor that set the owner of the contract"
      },
      "createBounty(uint256,string,string)": {
        "details": "Create a new bounty as a creator the caller The user must provide at least the amount that he is willing to pay for this bounty",
        "params": {
          "amount": "uint256 Amount to be paid when the bounty is done",
          "description": "string Description of the bounty ",
          "title": "string Title of the bounty to create"
        },
        "return": "bountyId uint256"
      },
      "getBountyInfos(uint256)": {
        "details": "Get all the infos abount a bounty",
        "params": {
          "bountyId": "uint256 id of the bounty "
        },
        "return": "title string Title of the bountydescription string Description of the bountyamount uint256 The amount that will be paid for this bountyid uint256 Bounty idcreator Address of the bounty creatorisOpened bool If the bounty is still opened for work submission"
      },
      "getLastBountyId()": {
        "details": "Returns the last bounty id that was created",
        "return": "bountyId uint256 The last bounty id "
      },
      "getWorkInfos(uint256)": {
        "details": "Return the infos of a work",
        "params": {
          "_workId": "uint256 Id of the work"
        },
        "return": "id uint256 Id of the workdescription string Description of the workisDenied bool If the work has been rejected or notdoer address od the work doerapproved book If the work has been approved"
      },
      "getWorkProposedIds(uint256)": {
        "details": "Returns an array of uint256 that the ids of the work that have been submitted for this bounty",
        "params": {
          "_bountyId": "uint256"
        }
      },
      "isBountyOpened(uint256)": {
        "details": "Returns true if the bounty has not been filled yet",
        "params": {
          "_bountyId": "uint256 Id of the bounty"
        },
        "return": "bool"
      },
      "rejectWork(uint256,uint256)": {
        "details": "Bounty owner call it to reject a work submitted for this work",
        "params": {
          "_bountyId": "uint256 Id of the bounty the work is linked to",
          "_workId": "uint256 Id of the work that will be rejected"
        }
      },
      "submitWork(string,uint256,string)": {
        "details": "Submit the work that has been done for approval",
        "params": {
          "description": "string Description of the work",
          "id": "uint256 Id of the bounty the work has been done for"
        },
        "return": "newWorkId uint256 The id of the new work"
      },
      "withdrawPending()": {
        "details": "Allow to withdraw a pending balance of a user"
      }
    }
  },
  "userdoc": {
    "methods": {
      "submitWork(string,uint256,string)": {
        "notice": "Use IFPS to submit the work"
      }
    }
  }
}