{
  "contractName": "BountyApp",
  "abi": [
    {
      "constant": true,
      "inputs": [
        {
          "name": "",
          "type": "address"
        }
      ],
      "name": "createdBountyCount",
      "outputs": [
        {
          "name": "",
          "type": "uint256"
        }
      ],
      "payable": false,
      "stateMutability": "view",
      "type": "function",
      "signature": "0x0ac59a8c"
    },
    {
      "constant": true,
      "inputs": [
        {
          "name": "",
          "type": "uint256"
        }
      ],
      "name": "bountyIdToCreator",
      "outputs": [
        {
          "name": "",
          "type": "address"
        }
      ],
      "payable": false,
      "stateMutability": "view",
      "type": "function",
      "signature": "0x2de0b049"
    },
    {
      "constant": true,
      "inputs": [
        {
          "name": "",
          "type": "uint256"
        }
      ],
      "name": "idToBounty",
      "outputs": [
        {
          "name": "isOpened",
          "type": "bool"
        },
        {
          "name": "exist",
          "type": "bool"
        },
        {
          "name": "amount",
          "type": "uint256"
        },
        {
          "name": "title",
          "type": "string"
        },
        {
          "name": "description",
          "type": "string"
        }
      ],
      "payable": false,
      "stateMutability": "view",
      "type": "function",
      "signature": "0x382e4f39"
    },
    {
      "constant": true,
      "inputs": [
        {
          "name": "",
          "type": "address"
        }
      ],
      "name": "worksProposedCount",
      "outputs": [
        {
          "name": "",
          "type": "uint256"
        }
      ],
      "payable": false,
      "stateMutability": "view",
      "type": "function",
      "signature": "0x3a4634ce"
    },
    {
      "constant": true,
      "inputs": [
        {
          "name": "",
          "type": "uint256"
        },
        {
          "name": "",
          "type": "uint256"
        }
      ],
      "name": "bountyIdToWorkIds",
      "outputs": [
        {
          "name": "",
          "type": "uint256"
        }
      ],
      "payable": false,
      "stateMutability": "view",
      "type": "function",
      "signature": "0x4914f482"
    },
    {
      "constant": true,
      "inputs": [
        {
          "name": "",
          "type": "uint256"
        }
      ],
      "name": "workIdToBountyId",
      "outputs": [
        {
          "name": "",
          "type": "uint256"
        }
      ],
      "payable": false,
      "stateMutability": "view",
      "type": "function",
      "signature": "0x59758cde"
    },
    {
      "constant": true,
      "inputs": [
        {
          "name": "",
          "type": "address"
        },
        {
          "name": "",
          "type": "uint256"
        }
      ],
      "name": "doerToWorkIds",
      "outputs": [
        {
          "name": "",
          "type": "uint256"
        }
      ],
      "payable": false,
      "stateMutability": "view",
      "type": "function",
      "signature": "0x63ae23d8"
    },
    {
      "constant": true,
      "inputs": [
        {
          "name": "",
          "type": "uint256"
        }
      ],
      "name": "workIdToDoer",
      "outputs": [
        {
          "name": "",
          "type": "address"
        }
      ],
      "payable": false,
      "stateMutability": "view",
      "type": "function",
      "signature": "0x7a5f2648"
    },
    {
      "constant": true,
      "inputs": [],
      "name": "owner",
      "outputs": [
        {
          "name": "",
          "type": "address"
        }
      ],
      "payable": false,
      "stateMutability": "view",
      "type": "function",
      "signature": "0x8da5cb5b"
    },
    {
      "constant": true,
      "inputs": [
        {
          "name": "",
          "type": "uint256"
        }
      ],
      "name": "idToWork",
      "outputs": [
        {
          "name": "description",
          "type": "string"
        },
        {
          "name": "denied",
          "type": "bool"
        },
        {
          "name": "exist",
          "type": "bool"
        },
        {
          "name": "approved",
          "type": "bool"
        },
        {
          "name": "doer",
          "type": "address"
        }
      ],
      "payable": false,
      "stateMutability": "view",
      "type": "function",
      "signature": "0xa1d2c548"
    },
    {
      "constant": true,
      "inputs": [
        {
          "name": "",
          "type": "address"
        },
        {
          "name": "",
          "type": "uint256"
        }
      ],
      "name": "creatorToBountyIds",
      "outputs": [
        {
          "name": "",
          "type": "uint256"
        }
      ],
      "payable": false,
      "stateMutability": "view",
      "type": "function",
      "signature": "0xd6bb920a"
    },
    {
      "constant": true,
      "inputs": [
        {
          "name": "",
          "type": "address"
        }
      ],
      "name": "pendingWithdrawals",
      "outputs": [
        {
          "name": "",
          "type": "uint256"
        }
      ],
      "payable": false,
      "stateMutability": "view",
      "type": "function",
      "signature": "0xf3f43703"
    },
    {
      "inputs": [],
      "payable": false,
      "stateMutability": "nonpayable",
      "type": "constructor",
      "signature": "constructor"
    },
    {
      "anonymous": false,
      "inputs": [
        {
          "indexed": false,
          "name": "bountyId",
          "type": "uint256"
        },
        {
          "indexed": false,
          "name": "creator",
          "type": "address"
        }
      ],
      "name": "NewBounty",
      "type": "event",
      "signature": "0xe833fe7ec334a36fe5fb99c0eb05d0ccbc7e61c17d9ba40efa82a6891bcfe016"
    },
    {
      "anonymous": false,
      "inputs": [
        {
          "indexed": false,
          "name": "workId",
          "type": "uint256"
        },
        {
          "indexed": false,
          "name": "bountyId",
          "type": "uint256"
        },
        {
          "indexed": false,
          "name": "hunter",
          "type": "address"
        }
      ],
      "name": "NewWork",
      "type": "event",
      "signature": "0xd45360172e8a0f311f4cd7fdfb954f4eff78f5938f808c776765c73647ef4aa3"
    },
    {
      "anonymous": false,
      "inputs": [
        {
          "indexed": false,
          "name": "workId",
          "type": "uint256"
        },
        {
          "indexed": false,
          "name": "bountyId",
          "type": "uint256"
        }
      ],
      "name": "WorkApproved",
      "type": "event",
      "signature": "0xaf8c00204411d5f080de0913186cb59749c06fed4928e61473415b44facf6d8e"
    },
    {
      "anonymous": false,
      "inputs": [
        {
          "indexed": false,
          "name": "workId",
          "type": "uint256"
        },
        {
          "indexed": false,
          "name": "bountyId",
          "type": "uint256"
        }
      ],
      "name": "WorkRejected",
      "type": "event",
      "signature": "0x3b5842158db85ec7b284e2f15550fc6c027b2fd6807d8a8087927899447176f2"
    },
    {
      "constant": true,
      "inputs": [
        {
          "name": "id",
          "type": "uint256"
        }
      ],
      "name": "bountyCountWorks",
      "outputs": [
        {
          "name": "",
          "type": "uint256"
        }
      ],
      "payable": false,
      "stateMutability": "view",
      "type": "function",
      "signature": "0x0f28daa1"
    },
    {
      "constant": true,
      "inputs": [
        {
          "name": "_bountyId",
          "type": "uint256"
        }
      ],
      "name": "isBountyOpened",
      "outputs": [
        {
          "name": "",
          "type": "bool"
        }
      ],
      "payable": false,
      "stateMutability": "view",
      "type": "function",
      "signature": "0xd2952de7"
    },
    {
      "constant": false,
      "inputs": [
        {
          "name": "amount",
          "type": "uint256"
        },
        {
          "name": "title",
          "type": "string"
        },
        {
          "name": "description",
          "type": "string"
        }
      ],
      "name": "createBounty",
      "outputs": [
        {
          "name": "",
          "type": "uint256"
        }
      ],
      "payable": true,
      "stateMutability": "payable",
      "type": "function",
      "signature": "0x4b36ff1b"
    },
    {
      "constant": true,
      "inputs": [
        {
          "name": "bountyId",
          "type": "uint256"
        }
      ],
      "name": "getBountyInfos",
      "outputs": [
        {
          "name": "title",
          "type": "string"
        },
        {
          "name": "description",
          "type": "string"
        },
        {
          "name": "amount",
          "type": "uint256"
        },
        {
          "name": "id",
          "type": "uint256"
        },
        {
          "name": "creator",
          "type": "address"
        },
        {
          "name": "isOpened",
          "type": "bool"
        }
      ],
      "payable": false,
      "stateMutability": "view",
      "type": "function",
      "signature": "0x73c3454b"
    },
    {
      "constant": true,
      "inputs": [],
      "name": "getLastBountyId",
      "outputs": [
        {
          "name": "",
          "type": "uint256"
        }
      ],
      "payable": false,
      "stateMutability": "view",
      "type": "function",
      "signature": "0xc4e8ac41"
    },
    {
      "constant": false,
      "inputs": [
        {
          "name": "description",
          "type": "string"
        },
        {
          "name": "id",
          "type": "uint256"
        }
      ],
      "name": "submitWork",
      "outputs": [
        {
          "name": "newWorkId",
          "type": "uint256"
        }
      ],
      "payable": false,
      "stateMutability": "nonpayable",
      "type": "function",
      "signature": "0xcd17b57f"
    },
    {
      "constant": false,
      "inputs": [
        {
          "name": "_bountyId",
          "type": "uint256"
        },
        {
          "name": "_workId",
          "type": "uint256"
        }
      ],
      "name": "approveWork",
      "outputs": [],
      "payable": false,
      "stateMutability": "nonpayable",
      "type": "function",
      "signature": "0xc5df0431"
    },
    {
      "constant": false,
      "inputs": [
        {
          "name": "_bountyId",
          "type": "uint256"
        },
        {
          "name": "_workId",
          "type": "uint256"
        }
      ],
      "name": "rejectWork",
      "outputs": [],
      "payable": false,
      "stateMutability": "nonpayable",
      "type": "function",
      "signature": "0x539a5a29"
    },
    {
      "constant": true,
      "inputs": [
        {
          "name": "_bountyId",
          "type": "uint256"
        }
      ],
      "name": "getWorkProposedIds",
      "outputs": [
        {
          "name": "",
          "type": "uint256[]"
        }
      ],
      "payable": false,
      "stateMutability": "view",
      "type": "function",
      "signature": "0x419e75ef"
    },
    {
      "constant": true,
      "inputs": [
        {
          "name": "_workId",
          "type": "uint256"
        }
      ],
      "name": "getWorkInfos",
      "outputs": [
        {
          "name": "id",
          "type": "uint256"
        },
        {
          "name": "description",
          "type": "string"
        },
        {
          "name": "isDenied",
          "type": "bool"
        },
        {
          "name": "doer",
          "type": "address"
        },
        {
          "name": "approved",
          "type": "bool"
        }
      ],
      "payable": false,
      "stateMutability": "view",
      "type": "function",
      "signature": "0x4602d32f"
    },
    {
      "constant": false,
      "inputs": [],
      "name": "withdrawPending",
      "outputs": [],
      "payable": false,
      "stateMutability": "nonpayable",
      "type": "function",
      "signature": "0x7edbceb1"
    }
  ],
  "bytecode": "0x608060405234801561001057600080fd5b50336000806101000a81548173ffffffffffffffffffffffffffffffffffffffff021916908373ffffffffffffffffffffffffffffffffffffffff160217905550612c08806100606000396000f3fe608060405260043610610133576000357c0100000000000000000000000000000000000000000000000000000000900463ffffffff1680630ac59a8c146101385780630f28daa11461019d5780632de0b049146101ec578063382e4f39146102675780633a4634ce146103a4578063419e75ef146104095780634602d32f146104995780634914f4821461059d5780634b36ff1b146105f6578063539a5a291461076657806359758cde146107ab57806363ae23d8146107fa57806373c3454b146108695780637a5f2648146109d55780637edbceb114610a505780638da5cb5b14610a67578063a1d2c54814610abe578063c4e8ac4114610bc6578063c5df043114610bf1578063cd17b57f14610c36578063d2952de714610d1c578063d6bb920a14610d6f578063f3f4370314610dde575b600080fd5b34801561014457600080fd5b506101876004803603602081101561015b57600080fd5b81019080803573ffffffffffffffffffffffffffffffffffffffff169060200190929190505050610e43565b6040518082815260200191505060405180910390f35b3480156101a957600080fd5b506101d6600480360360208110156101c057600080fd5b8101908080359060200190929190505050610e5b565b6040518082815260200191505060405180910390f35b3480156101f857600080fd5b506102256004803603602081101561020f57600080fd5b8101908080359060200190929190505050610f1d565b604051808273ffffffffffffffffffffffffffffffffffffffff1673ffffffffffffffffffffffffffffffffffffffff16815260200191505060405180910390f35b34801561027357600080fd5b506102a06004803603602081101561028a57600080fd5b8101908080359060200190929190505050610f50565b6040518086151515158152602001851515151581526020018481526020018060200180602001838103835285818151815260200191508051906020019080838360005b838110156102fe5780820151818401526020810190506102e3565b50505050905090810190601f16801561032b5780820380516001836020036101000a031916815260200191505b50838103825284818151815260200191508051906020019080838360005b83811015610364578082015181840152602081019050610349565b50505050905090810190601f1680156103915780820380516001836020036101000a031916815260200191505b5097505050505050505060405180910390f35b3480156103b057600080fd5b506103f3600480360360208110156103c757600080fd5b81019080803573ffffffffffffffffffffffffffffffffffffffff1690602001909291905050506110d0565b6040518082815260200191505060405180910390f35b34801561041557600080fd5b506104426004803603602081101561042c57600080fd5b81019080803590602001909291905050506110e8565b6040518080602001828103825283818151815260200191508051906020019060200280838360005b8381101561048557808201518184015260208101905061046a565b505050509050019250505060405180910390f35b3480156104a557600080fd5b506104d2600480360360208110156104bc57600080fd5b8101908080359060200190929190505050611153565b6040518086815260200180602001851515151581526020018473ffffffffffffffffffffffffffffffffffffffff1673ffffffffffffffffffffffffffffffffffffffff16815260200183151515158152602001828103825286818151815260200191508051906020019080838360005b8381101561055e578082015181840152602081019050610543565b50505050905090810190601f16801561058b5780820380516001836020036101000a031916815260200191505b50965050505050505060405180910390f35b3480156105a957600080fd5b506105e0600480360360408110156105c057600080fd5b8101908080359060200190929190803590602001909291905050506112fa565b6040518082815260200191505060405180910390f35b6107506004803603606081101561060c57600080fd5b81019080803590602001909291908035906020019064010000000081111561063357600080fd5b82018360208201111561064557600080fd5b8035906020019184600183028401116401000000008311171561066757600080fd5b91908080601f016020809104026020016040519081016040528093929190818152602001838380828437600081840152601f19601f820116905080830192505050505050509192919290803590602001906401000000008111156106ca57600080fd5b8201836020820111156106dc57600080fd5b803590602001918460018302840111640100000000831117156106fe57600080fd5b91908080601f016020809104026020016040519081016040528093929190818152602001838380828437600081840152601f19601f82011690508083019250505050505050919291929050505061132a565b6040518082815260200191505060405180910390f35b34801561077257600080fd5b506107a96004803603604081101561078957600080fd5b8101908080359060200190929190803590602001909291905050506116c0565b005b3480156107b757600080fd5b506107e4600480360360208110156107ce57600080fd5b8101908080359060200190929190505050611a9d565b6040518082815260200191505060405180910390f35b34801561080657600080fd5b506108536004803603604081101561081d57600080fd5b81019080803573ffffffffffffffffffffffffffffffffffffffff16906020019092919080359060200190929190505050611ab5565b6040518082815260200191505060405180910390f35b34801561087557600080fd5b506108a26004803603602081101561088c57600080fd5b8101908080359060200190929190505050611ae5565b6040518080602001806020018781526020018681526020018573ffffffffffffffffffffffffffffffffffffffff1673ffffffffffffffffffffffffffffffffffffffff16815260200184151515158152602001838103835289818151815260200191508051906020019080838360005b8381101561092e578082015181840152602081019050610913565b50505050905090810190601f16801561095b5780820380516001836020036101000a031916815260200191505b50838103825288818151815260200191508051906020019080838360005b83811015610994578082015181840152602081019050610979565b50505050905090810190601f1680156109c15780820380516001836020036101000a031916815260200191505b509850505050505050505060405180910390f35b3480156109e157600080fd5b50610a0e600480360360208110156109f857600080fd5b8101908080359060200190929190505050611da2565b604051808273ffffffffffffffffffffffffffffffffffffffff1673ffffffffffffffffffffffffffffffffffffffff16815260200191505060405180910390f35b348015610a5c57600080fd5b50610a65611dd5565b005b348015610a7357600080fd5b50610a7c611ea8565b604051808273ffffffffffffffffffffffffffffffffffffffff1673ffffffffffffffffffffffffffffffffffffffff16815260200191505060405180910390f35b348015610aca57600080fd5b50610af760048036036020811015610ae157600080fd5b8101908080359060200190929190505050611ecd565b60405180806020018615151515815260200185151515158152602001841515151581526020018373ffffffffffffffffffffffffffffffffffffffff1673ffffffffffffffffffffffffffffffffffffffff168152602001828103825287818151815260200191508051906020019080838360005b83811015610b87578082015181840152602081019050610b6c565b50505050905090810190601f168015610bb45780820380516001836020036101000a031916815260200191505b50965050505050505060405180910390f35b348015610bd257600080fd5b50610bdb611fe2565b6040518082815260200191505060405180910390f35b348015610bfd57600080fd5b50610c3460048036036040811015610c1457600080fd5b810190808035906020019092919080359060200190929190505050611fef565b005b348015610c4257600080fd5b50610d0660048036036040811015610c5957600080fd5b8101908080359060200190640100000000811115610c7657600080fd5b820183602082011115610c8857600080fd5b80359060200191846001830284011164010000000083111715610caa57600080fd5b91908080601f016020809104026020016040519081016040528093929190818152602001838380828437600081840152601f19601f82011690508083019250505050505050919291929080359060200190929190505050612559565b6040518082815260200191505060405180910390f35b348015610d2857600080fd5b50610d5560048036036020811015610d3f57600080fd5b810190808035906020019092919050505061295d565b604051808215151515815260200191505060405180910390f35b348015610d7b57600080fd5b50610dc860048036036040811015610d9257600080fd5b81019080803573ffffffffffffffffffffffffffffffffffffffff16906020019092919080359060200190929190505050612a2c565b6040518082815260200191505060405180910390f35b348015610dea57600080fd5b50610e2d60048036036020811015610e0157600080fd5b81019080803573ffffffffffffffffffffffffffffffffffffffff169060200190929190505050612a5c565b6040518082815260200191505060405180910390f35b60046020528060005260406000206000915090505481565b600081600015156002600083815260200190815260200160002060000160019054906101000a900460ff16151514151515610efe576040517f08c379a000000000000000000000000000000000000000000000000000000000815260040180806020018281038252601a8152602001807f5468697320626f756e747920646f6573206e6f7420657869737400000000000081525060200191505060405180910390fd5b6008600084815260200190815260200160002080549050915050919050565b60036020528060005260406000206000915054906101000a900473ffffffffffffffffffffffffffffffffffffffff1681565b60026020528060005260406000206000915090508060000160009054906101000a900460ff16908060000160019054906101000a900460ff1690806001015490806002018054600181600116156101000203166002900480601f0160208091040260200160405190810160405280929190818152602001828054600181600116156101000203166002900480156110285780601f10610ffd57610100808354040283529160200191611028565b820191906000526020600020905b81548152906001019060200180831161100b57829003601f168201915b505050505090806003018054600181600116156101000203166002900480601f0160208091040260200160405190810160405280929190818152602001828054600181600116156101000203166002900480156110c65780601f1061109b576101008083540402835291602001916110c6565b820191906000526020600020905b8154815290600101906020018083116110a957829003601f168201915b5050505050905085565b600b6020528060005260406000206000915090505481565b60606008600083815260200190815260200160002080548060200260200160405190810160405280929190818152602001828054801561114757602002820191906000526020600020905b815481526020019060010190808311611133575b50505050509050919050565b600060606000806000611164612ab7565b6007600088815260200190815260200160002060a06040519081016040529081600082018054600181600116156101000203166002900480601f01602080910402602001604051908101604052809291908181526020018280546001816001161561010002031660029004801561121c5780601f106111f15761010080835404028352916020019161121c565b820191906000526020600020905b8154815290600101906020018083116111ff57829003601f168201915b505050505081526020016001820160009054906101000a900460ff161515151581526020016001820160019054906101000a900460ff161515151581526020016001820160029054906101000a900460ff161515151581526020016001820160039054906101000a900473ffffffffffffffffffffffffffffffffffffffff1673ffffffffffffffffffffffffffffffffffffffff1673ffffffffffffffffffffffffffffffffffffffff16815250509050868160000151826020015183608001518460600151839350955095509550955095505091939590929450565b60086020528160005260406000208181548110151561131557fe5b90600052602060002001600091509150505481565b60008334101515156113f0576040517f08c379a00000000000000000000000000000000000000000000000000000000081526004018080602001828103825260548152602001807f45746865722073656e74206d757374206265206174206c65617374206571756181526020017f6c20746f2074686520616d6f756e7420796f752772652077696c6c696e67207481526020017f6f2070617920666f722074686520626f756e747900000000000000000000000081525060600191505060405180910390fd5b6113f8612b03565b60a06040519081016040528060011515815260200160011515815260200186815260200185815260200184815250905060006114346001612a74565b9050336003600083815260200190815260200160002060006101000a81548173ffffffffffffffffffffffffffffffffffffffff021916908373ffffffffffffffffffffffffffffffffffffffff160217905550600460003373ffffffffffffffffffffffffffffffffffffffff1673ffffffffffffffffffffffffffffffffffffffff16815260200190815260200160002060008154809291906001019190505550600560003373ffffffffffffffffffffffffffffffffffffffff1673ffffffffffffffffffffffffffffffffffffffff168152602001908152602001600020819080600181540180825580915050906001820390600052602060002001600090919290919091505550816002600083815260200190815260200160002060008201518160000160006101000a81548160ff02191690831515021790555060208201518160000160016101000a81548160ff0219169083151502179055506040820151816001015560608201518160020190805190602001906115ba929190612b37565b5060808201518160030190805190602001906115d7929190612b37565b50905050853411156116495760006115f88734612a9590919063ffffffff16565b905080600d60003373ffffffffffffffffffffffffffffffffffffffff1673ffffffffffffffffffffffffffffffffffffffff16815260200190815260200160002060008282540192505081905550505b7fe833fe7ec334a36fe5fb99c0eb05d0ccbc7e61c17d9ba40efa82a6891bcfe0168133604051808381526020018273ffffffffffffffffffffffffffffffffffffffff1673ffffffffffffffffffffffffffffffffffffffff1681526020019250505060405180910390a180925050509392505050565b81600015156002600083815260200190815260200160002060000160019054906101000a900460ff16151514151515611761576040517f08c379a000000000000000000000000000000000000000000000000000000000815260040180806020018281038252601a8152602001807f5468697320626f756e747920646f6573206e6f7420657869737400000000000081525060200191505060405180910390fd5b81600015156007600083815260200190815260200160002060010160019054906101000a900460ff16151514151515611802576040517f08c379a00000000000000000000000000000000000000000000000000000000081526004018080602001828103825260188152602001807f5468697320776f726b20646f6573206e6f74206578697374000000000000000081525060200191505060405180910390fd5b83600115156002600083815260200190815260200160002060000160009054906101000a900460ff1615151415156118a2576040517f08c379a000000000000000000000000000000000000000000000000000000000815260040180806020018281038252601a8152602001807f426f756e7479206e6f74206f70656e656420666f7220776f726b00000000000081525060200191505060405180910390fd5b3373ffffffffffffffffffffffffffffffffffffffff166003600087815260200190815260200160002060009054906101000a900473ffffffffffffffffffffffffffffffffffffffff1673ffffffffffffffffffffffffffffffffffffffff16141515611978576040517f08c379a000000000000000000000000000000000000000000000000000000000815260040180806020018281038252601a8152602001807f4d7573742062652074686520626f756e74792063726561746f7200000000000081525060200191505060405180910390fd5b84600a600086815260200190815260200160002054141515611a28576040517f08c379a00000000000000000000000000000000000000000000000000000000081526004018080602001828103825260238152602001807f5468697320776f726b20646f6573206e6f742066696c6c207468697320626f7581526020017f6e7479000000000000000000000000000000000000000000000000000000000081525060400191505060405180910390fd5b60016007600086815260200190815260200160002060010160006101000a81548160ff0219169083151502179055507f3b5842158db85ec7b284e2f15550fc6c027b2fd6807d8a8087927899447176f28486604051808381526020018281526020019250505060405180910390a15050505050565b600a6020528060005260406000206000915090505481565b600c60205281600052604060002081815481101515611ad057fe5b90600052602060002001600091509150505481565b60608060008060008086600015156002600083815260200190815260200160002060000160019054906101000a900460ff16151514151515611b8f576040517f08c379a000000000000000000000000000000000000000000000000000000000815260040180806020018281038252601a8152602001807f5468697320626f756e747920646f6573206e6f7420657869737400000000000081525060200191505060405180910390fd5b611b97612b03565b600260008a815260200190815260200160002060a060405190810160405290816000820160009054906101000a900460ff161515151581526020016000820160019054906101000a900460ff1615151515815260200160018201548152602001600282018054600181600116156101000203166002900480601f016020809104026020016040519081016040528092919081815260200182805460018160011615610100020316600290048015611c8f5780601f10611c6457610100808354040283529160200191611c8f565b820191906000526020600020905b815481529060010190602001808311611c7257829003601f168201915b50505050508152602001600382018054600181600116156101000203166002900480601f016020809104026020016040519081016040528092919081815260200182805460018160011615610100020316600290048015611d315780601f10611d0657610100808354040283529160200191611d31565b820191906000526020600020905b815481529060010190602001808311611d1457829003601f168201915b50505050508152505090508060600151816080015182604001518b600360008e815260200190815260200160002060009054906101000a900473ffffffffffffffffffffffffffffffffffffffff168560000151859550849450975097509750975097509750505091939550919395565b60096020528060005260406000206000915054906101000a900473ffffffffffffffffffffffffffffffffffffffff1681565b6000600d60003373ffffffffffffffffffffffffffffffffffffffff1673ffffffffffffffffffffffffffffffffffffffff1681526020019081526020016000205490506000600d60003373ffffffffffffffffffffffffffffffffffffffff1673ffffffffffffffffffffffffffffffffffffffff168152602001908152602001600020819055503373ffffffffffffffffffffffffffffffffffffffff166108fc829081150290604051600060405180830381858888f19350505050158015611ea4573d6000803e3d6000fd5b5050565b6000809054906101000a900473ffffffffffffffffffffffffffffffffffffffff1681565b6007602052806000526040600020600091509050806000018054600181600116156101000203166002900480601f016020809104026020016040519081016040528092919081815260200182805460018160011615610100020316600290048015611f795780601f10611f4e57610100808354040283529160200191611f79565b820191906000526020600020905b815481529060010190602001808311611f5c57829003601f168201915b5050505050908060010160009054906101000a900460ff16908060010160019054906101000a900460ff16908060010160029054906101000a900460ff16908060010160039054906101000a900473ffffffffffffffffffffffffffffffffffffffff16905085565b6000600160000154905090565b81600015156002600083815260200190815260200160002060000160019054906101000a900460ff16151514151515612090576040517f08c379a000000000000000000000000000000000000000000000000000000000815260040180806020018281038252601a8152602001807f5468697320626f756e747920646f6573206e6f7420657869737400000000000081525060200191505060405180910390fd5b81600015156007600083815260200190815260200160002060010160019054906101000a900460ff16151514151515612131576040517f08c379a00000000000000000000000000000000000000000000000000000000081526004018080602001828103825260188152602001807f5468697320776f726b20646f6573206e6f74206578697374000000000000000081525060200191505060405180910390fd5b83600115156002600083815260200190815260200160002060000160009054906101000a900460ff1615151415156121d1576040517f08c379a000000000000000000000000000000000000000000000000000000000815260040180806020018281038252601a8152602001807f426f756e7479206e6f74206f70656e656420666f7220776f726b00000000000081525060200191505060405180910390fd5b3373ffffffffffffffffffffffffffffffffffffffff166003600087815260200190815260200160002060009054906101000a900473ffffffffffffffffffffffffffffffffffffffff1673ffffffffffffffffffffffffffffffffffffffff161415156122a7576040517f08c379a000000000000000000000000000000000000000000000000000000000815260040180806020018281038252601a8152602001807f4d7573742062652074686520626f756e74792063726561746f7200000000000081525060200191505060405180910390fd5b84600a600086815260200190815260200160002054141515612357576040517f08c379a00000000000000000000000000000000000000000000000000000000081526004018080602001828103825260238152602001807f5468697320776f726b20646f6573206e6f742066696c6c207468697320626f7581526020017f6e7479000000000000000000000000000000000000000000000000000000000081525060400191505060405180910390fd5b6007600085815260200190815260200160002060010160009054906101000a900460ff16151515612416576040517f08c379a00000000000000000000000000000000000000000000000000000000081526004018080602001828103825260238152602001807f5468697320776f726b2068617320616c7265616479206265656e2072656a656381526020017f746564000000000000000000000000000000000000000000000000000000000081525060400191505060405180910390fd5b60006002600087815260200190815260200160002060000160006101000a81548160ff02191690831515021790555060016007600086815260200190815260200160002060010160026101000a81548160ff02191690831515021790555060006007600086815260200190815260200160002060010160039054906101000a900473ffffffffffffffffffffffffffffffffffffffff1690506002600087815260200190815260200160002060010154600d60008373ffffffffffffffffffffffffffffffffffffffff1673ffffffffffffffffffffffffffffffffffffffff168152602001908152602001600020600082825401925050819055507faf8c00204411d5f080de0913186cb59749c06fed4928e61473415b44facf6d8e8587604051808381526020018281526020019250505060405180910390a1505050505050565b600081600015156002600083815260200190815260200160002060000160019054906101000a900460ff161515141515156125fc576040517f08c379a000000000000000000000000000000000000000000000000000000000815260040180806020018281038252601a8152602001807f5468697320626f756e747920646f6573206e6f7420657869737400000000000081525060200191505060405180910390fd5b82600115156002600083815260200190815260200160002060000160009054906101000a900460ff16151514151561269c576040517f08c379a000000000000000000000000000000000000000000000000000000000815260040180806020018281038252601a8152602001807f426f756e7479206e6f74206f70656e656420666f7220776f726b00000000000081525060200191505060405180910390fd5b6126a4612ab7565b60a0604051908101604052808781526020016000151581526020016001151581526020016000151581526020013373ffffffffffffffffffffffffffffffffffffffff1681525090506126f76006612a74565b935060086000868152602001908152602001600020849080600181540180825580915050906001820390600052602060002001600090919290919091505550600c60003373ffffffffffffffffffffffffffffffffffffffff1673ffffffffffffffffffffffffffffffffffffffff16815260200190815260200160002084908060018154018082558091505090600182039060005260206000200160009091929091909150555084600a600086815260200190815260200160002081905550806007600086815260200190815260200160002060008201518160000190805190602001906127e7929190612b37565b5060208201518160010160006101000a81548160ff02191690831515021790555060408201518160010160016101000a81548160ff02191690831515021790555060608201518160010160026101000a81548160ff02191690831515021790555060808201518160010160036101000a81548173ffffffffffffffffffffffffffffffffffffffff021916908373ffffffffffffffffffffffffffffffffffffffff160217905550905050600b60003373ffffffffffffffffffffffffffffffffffffffff1673ffffffffffffffffffffffffffffffffffffffff168152602001908152602001600020600081548092919060010191905055507fd45360172e8a0f311f4cd7fdfb954f4eff78f5938f808c776765c73647ef4aa3848633604051808481526020018381526020018273ffffffffffffffffffffffffffffffffffffffff1673ffffffffffffffffffffffffffffffffffffffff168152602001935050505060405180910390a150505092915050565b600081600015156002600083815260200190815260200160002060000160019054906101000a900460ff16151514151515612a00576040517f08c379a000000000000000000000000000000000000000000000000000000000815260040180806020018281038252601a8152602001807f5468697320626f756e747920646f6573206e6f7420657869737400000000000081525060200191505060405180910390fd5b6002600084815260200190815260200160002060000160009054906101000a900460ff16915050919050565b600560205281600052604060002081815481101515612a4757fe5b90600052602060002001600091509150505481565b600d6020528060005260406000206000915090505481565b60006001826000016000828254019250508190555081600001549050919050565b6000828211151515612aa657600080fd5b600082840390508091505092915050565b60a06040519081016040528060608152602001600015158152602001600015158152602001600015158152602001600073ffffffffffffffffffffffffffffffffffffffff1681525090565b60a0604051908101604052806000151581526020016000151581526020016000815260200160608152602001606081525090565b828054600181600116156101000203166002900490600052602060002090601f016020900481019282601f10612b7857805160ff1916838001178555612ba6565b82800160010185558215612ba6579182015b82811115612ba5578251825591602001919060010190612b8a565b5b509050612bb39190612bb7565b5090565b612bd991905b80821115612bd5576000816000905550600101612bbd565b5090565b9056fea165627a7a72305820e4588965b52b6f5695d61bde7557f2e5c00153fea5b2dc64194185d5ce2cec9f0029",
  "source": "pragma solidity ^0.5.0;\n\nimport \"openzeppelin-solidity/contracts/math/SafeMath.sol\";\nimport \"openzeppelin-solidity/contracts/drafts/Counter.sol\";\n\npragma solidity ^0.5.0;\n\ncontract BountyApp {\n    using SafeMath for uint256;\n    using Counter for Counter.Counter;\n    \n    address public owner;\n    \n    /**\n     * @dev Bounty struct\n     * Holds all the infos about a job offer\n     */\n    struct Bounty {\n        // If the offer is still opened\n        bool isOpened;\n        // If the offer exist\n        bool exist;\n        // The amount that will be payed for this offer\n        uint256 amount;\n        // Title of the offer\n        string title;\n        // The description of the offer\n        string description;\n        \n    }\n    \n    // Id of the bounties that increment by one for each new bounty\n    Counter.Counter private bountyId;\n    // Mapping between the bounty id and the bounty struct\n    mapping(uint256 => Bounty) public idToBounty;\n    // Mapping between a bountyId and its creator\n    mapping(uint256 => address) public bountyIdToCreator;\n    // Mapping from creator to number of bounty created\n    mapping(address => uint256) public createdBountyCount;\n    // Mapping between a creator and the list of bountyId he created\n    mapping(address => uint256[]) public creatorToBountyIds;\n    \n    \n    /**\n     * @dev Work struct\n     * It holds all the infos about a work that is submitted to \n     * fullfill a bounty\n     */\n    struct Work {\n        string description;\n        // if the bounty creator refused it\n        bool denied;\n        bool exist;\n        // If the bounty creator approved this work\n        bool approved;\n        address doer;\n    }\n\n    // Id of the works that increment by one for each new work\n    Counter.Counter private workId;\n    // Mapping between a work id and the work struct\n    mapping(uint256 => Work) public idToWork;\n    // mapping between a bounty id and the ids of the works that have been submitted\n    mapping(uint256 => uint256[]) public bountyIdToWorkIds;\n    // Mapping between work and its doer\n    mapping(uint256 => address) public workIdToDoer;\n    // Mapping between a work and the bounty it aims\n    mapping(uint256 => uint256) public workIdToBountyId;\n    // Map between an address and the count of works proposed by this address\n    mapping(address => uint256) public worksProposedCount;\n    // Mapping between an address and the work ids that it has proposed\n    mapping(address => uint256[]) public doerToWorkIds;\n    \n    \n    // withdrawal pending for job posters \n    mapping(address => uint256) public pendingWithdrawals;\n\n\n    /// EVENTS\n    event NewBounty(uint256 bountyId, address creator);\n    event NewWork(uint256 workId, uint256 bountyId, address hunter);\n    event WorkApproved(uint256 workId, uint256 bountyId);\n    event WorkRejected(uint256 workId, uint256 bountyId);\n    \n    /**\n     * @dev Constructor that set the owner of the contract\n     */\n    constructor() public {\n        owner = msg.sender;\n    }\n    \n\n    /**\n     * @dev Modifier that check if a bounty exists\n     */\n    modifier bountyExist(uint256 id) {\n        require(idToBounty[id].exist != false, \"This bounty does not exist\");\n        _;\n    }\n\n\n    /**\n     * @dev Modifier that check if a work exists\n     */\n    modifier workExist(uint256 id) {\n        require(idToWork[id].exist != false, \"This work does not exist\");\n        _;\n    }\n\n\n    /**\n     * @dev Modifier that checks that an bounty is still open\n     */\n    modifier bountyOpen(uint256 id) {\n        require(idToBounty[id].isOpened == true, \"Bounty not opened for work\");\n        _;\n    }\n    \n\n    /**\n     * @dev Returns the number of work that has been submitted for this bounty\n     * @param id uint256 Id of the job \n     */\n    function bountyCountWorks(uint256 id) public view bountyExist(id) returns (uint256) {\n        return bountyIdToWorkIds[id].length;\n    }\n\n\n    /**\n     * @dev Returns true if the bounty has not been filled yet\n     * @param _bountyId uint256 Id of the bounty\n     */\n    function isBountyOpened(uint256 _bountyId) public view bountyExist(_bountyId) returns (bool) {\n        return idToBounty[_bountyId].isOpened;\n    }\n\n\n    /**\n     * @dev Create a new bounty as a creator the caller\n     * The user must provide at least the amount that he is willing to pay for this bounty\n     * @param amount uint256 Amount to be paid when the bounty is done\n     * @param title string Title of the bounty to create\n     * @param description string Description of the bounty \n     */\n    function createBounty(uint256 amount, string memory title, string memory description) public payable returns (uint256) {\n        // Check that the user pays at leat the amount he is willing to pay for the bounty\n        require(msg.value >= amount, \"Ether sent must be at least equal to the amount you're willing to pay for the bounty\");\n        // Create a new bounty\n        Bounty memory newBounty = Bounty(true, true, amount, title, description);\n        // Increment the bountyId\n        uint256 newBountyId = bountyId.next();\n        // Associate the bounty id to the creator address\n        bountyIdToCreator[newBountyId] = msg.sender;\n        // Increment the number of bounty created by this user\n        createdBountyCount[msg.sender]++;\n        // Add the bounty id to the list of bounty ids this user has created\n        creatorToBountyIds[msg.sender].push(newBountyId);\n        // Add the bounty struct to the mapping of bountyId to job\n        idToBounty[newBountyId] = newBounty;\n        \n        // Add to the user balance the extra he would have paid\n        // Here we implement the withdraw design pattern to avoid someone to block the contract\n        if(msg.value > amount) {\n            uint256 change = msg.value.sub(amount);\n            pendingWithdrawals[msg.sender] += change;\n        }\n        \n        // Emit NewBounty event\n        emit NewBounty(newBountyId, msg.sender);\n\n        // Return the bounty id of the bounty we just created\n        return newBountyId;\n    }\n\n\n    /**\n     * @dev Get all the infos abount a bounty\n     * @param bountyId uint256 id of the bounty \n     */\n    function getBountyInfos(uint256 bountyId) public view bountyExist(bountyId) returns (\n        string memory title,\n        string memory description,\n        uint256 amount,\n        uint256 id,\n        address creator,\n        bool isOpened\n    )\n    {\n        Bounty memory bounty = idToBounty[bountyId];\n        return (bounty.title, bounty.description, bounty.amount, bountyId, bountyIdToCreator[bountyId], bounty.isOpened);\n    }\n\n    /**\n     * @dev Returns the last bounty id that was created\n     */\n    function getLastBountyId() public view returns (uint256) {\n        return bountyId.current;\n    }\n    \n    \n    /**\n     * @dev Submit the work that has been done for approval\n     * @param description string Description of the work\n     * @param id uint256 Id of the bounty the work has been done for\n     * @notice Use IFPS to submit the work\n     */\n    function submitWork(string memory description, uint256 id) public bountyExist(id) bountyOpen(id) returns (uint256 newWorkId){\n        // Create the new work\n        Work memory work = Work(description, false, true, false, msg.sender);\n        // Increment the workId\n        newWorkId = workId.next();\n        // Add the work to the list of work that has been submitted for this bounty\n        bountyIdToWorkIds[id].push(newWorkId);\n        // Associate the work to its doer\n        doerToWorkIds[msg.sender].push(newWorkId);\n        // Associate the work with the job id it aims to fill\n        workIdToBountyId[newWorkId] = id;\n        // Map the work id to the work struct\n        idToWork[newWorkId] = work;\n        // Increment the number of works submitted\n        worksProposedCount[msg.sender]++;\n\n        // Emit NewWork event\n        emit NewWork(newWorkId, id, msg.sender);\n    }\n    \n    \n    /**\n     * @dev Bounty owner call it to approve a work submitted for this work\n     * @param _bountyId uint256 Id of the bounty the work is linked to\n     * @param _workId uint256 Id of the work that will be approved\n     */\n    function approveWork(uint256 _bountyId, uint256 _workId) public bountyExist(_bountyId) workExist(_workId) bountyOpen(_bountyId){\n        // Check the message sender is also the creator of the bounty\n        require(bountyIdToCreator[_bountyId] == msg.sender, \"Must be the bounty creator\");\n        // Check this work was for this bounty\n        require(workIdToBountyId[_workId] == _bountyId, \"This work does not fill this bounty\");\n        // Check that the work has not been rejected\n        require(!idToWork[_workId].denied, \"This work has already been rejected\");\n        \n        // Set the bounty to close\n        idToBounty[_bountyId].isOpened = false;\n        // Set the work as approved\n        idToWork[_workId].approved = true;\n        address hunter = idToWork[_workId].doer;\n        // Add the amount of the bounty to the hunter balance (for later withdraw)\n        pendingWithdrawals[hunter] += idToBounty[_bountyId].amount;\n        \n        // Emit event WorkApproved\n        emit WorkApproved(_workId, _bountyId);\n    }\n\n    /**\n     * @dev Bounty owner call it to reject a work submitted for this work\n     * @param _bountyId uint256 Id of the bounty the work is linked to\n     * @param _workId uint256 Id of the work that will be rejected\n     */\n    function rejectWork(uint256 _bountyId, uint256 _workId) public bountyExist(_bountyId) workExist(_workId) bountyOpen(_bountyId){\n        // Check the message sender is also the creator of the work\n        require(bountyIdToCreator[_bountyId] == msg.sender, \"Must be the bounty creator\");\n        // Check this work was for this bounty\n        require(workIdToBountyId[_workId] == _bountyId, \"This work does not fill this bounty\");\n        \n        // Set the work as approved\n        idToWork[_workId].denied = true;\n        \n        // Emit event WorkApproved\n        emit WorkRejected(_workId, _bountyId);\n    }\n\n\n    /**\n     * @dev Returns an array of uint256 that the ids of the work that have been submitted for this bounty\n     */\n    function getWorkProposedIds(uint256 _bountyId) public view returns (uint256[] memory) {\n        return bountyIdToWorkIds[_bountyId];\n    }\n\n\n    function getWorkInfos(uint256 _workId) public view returns (\n        uint256 id,\n        string memory description,\n        bool isDenied,\n        address doer,\n        bool approved\n    )\n    {\n        Work memory work = idToWork[_workId];\n        return (_workId, work.description, work.denied, work.doer, work.approved);\n    }\n    \n    \n    /**\n     * @dev Allow to withdraw a pending balance of a user\n     */\n    function withdrawPending() public {\n        uint256 amount = pendingWithdrawals[msg.sender];\n        pendingWithdrawals[msg.sender] = 0;\n        msg.sender.transfer(amount);\n    }\n}",
  "sourcePath": "/Users/adriendulong/Documents/Dev/Crypto/Consensys/bountyApp/contracts/BountyApp.sol",
  "compiler": {
    "name": "solc",
    "version": "0.5.0+commit.1d4f565a.Emscripten.clang"
  },
  "schemaVersion": "3.0.1",
  "updatedAt": "2019-03-08T15:50:32.496Z",
  "devdoc": {
    "methods": {
      "approveWork(uint256,uint256)": {
        "details": "Bounty owner call it to approve a work submitted for this work",
        "params": {
          "_bountyId": "uint256 Id of the bounty the work is linked to",
          "_workId": "uint256 Id of the work that will be approved"
        }
      },
      "bountyCountWorks(uint256)": {
        "details": "Returns the number of work that has been submitted for this bounty",
        "params": {
          "id": "uint256 Id of the job "
        }
      },
      "constructor": {
        "details": "Constructor that set the owner of the contract"
      },
      "createBounty(uint256,string,string)": {
        "details": "Create a new bounty as a creator the caller The user must provide at least the amount that he is willing to pay for this bounty",
        "params": {
          "amount": "uint256 Amount to be paid when the bounty is done",
          "description": "string Description of the bounty ",
          "title": "string Title of the bounty to create"
        }
      },
      "getBountyInfos(uint256)": {
        "details": "Get all the infos abount a bounty",
        "params": {
          "bountyId": "uint256 id of the bounty "
        }
      },
      "getLastBountyId()": {
        "details": "Returns the last bounty id that was created"
      },
      "getWorkProposedIds(uint256)": {
        "details": "Returns an array of uint256 that the ids of the work that have been submitted for this bounty"
      },
      "isBountyOpened(uint256)": {
        "details": "Returns true if the bounty has not been filled yet",
        "params": {
          "_bountyId": "uint256 Id of the bounty"
        }
      },
      "rejectWork(uint256,uint256)": {
        "details": "Bounty owner call it to reject a work submitted for this work",
        "params": {
          "_bountyId": "uint256 Id of the bounty the work is linked to",
          "_workId": "uint256 Id of the work that will be rejected"
        }
      },
      "submitWork(string,uint256)": {
        "details": "Submit the work that has been done for approval",
        "params": {
          "description": "string Description of the work",
          "id": "uint256 Id of the bounty the work has been done for"
        }
      },
      "withdrawPending()": {
        "details": "Allow to withdraw a pending balance of a user"
      }
    }
  },
  "userdoc": {
    "methods": {
      "submitWork(string,uint256)": {
        "notice": "Use IFPS to submit the work"
      }
    }
  }
}